:1000000027C04BC04AC049C048C093C146C045C084
:1000100044C043C042C041C040C03FC03EC00000D9
:10002000000037000000000038000000000036002B
:10003000020202020202020202020102040810206D
:1000400020041008010200000400000000004D031D
:1000500011241FBECFE5D2E0DEBFCDBF10E0A0E689
:10006000B0E0EEE8F9E002C005900D92AA36B107C3
:10007000D9F720E0AAE6B0E001C01D92A13AB2078C
:10008000E1F710E0C8E2D0E003C02197FE014AD3B7
:10009000C732D107D1F797D178C4B2CF823081F07F
:1000A00018F4813051F00895833019F0843009F04C
:1000B00008958CB58F7D8CBD08958AB58F7702C069
:1000C0008AB58F7D8ABD0895CF93DF93282F30E0C6
:1000D000F901EC5BFF4F8491F901E65CFF4FD4918D
:1000E000F901E05DFF4FC491CC2389F08111D6DF87
:1000F000EC2FF0E0EE0FFF1FE65DFF4FA591B491EE
:10010000EC91ED2381E090E021F480E002C080E0FA
:1001100090E0DF91CF9108951F93CF93DF93282F25
:1001200030E0F901EC5BFF4F8491F901E65CFF4F91
:10013000D491F901E05DFF4FC491CC23C1F0162F9B
:100140008111ACDFEC2FF0E0EE0FFF1FEC5DFF4FF5
:10015000A591B4918FB7F894111105C09C91ED2F22
:10016000E095E92302C0EC91ED2BEC938FBFDF917A
:10017000CF911F910895CF93DF9390E0FC01E65C4F
:10018000FF4F2491FC01E05DFF4F8491882361F1D2
:1001900090E0880F991FFC01E25EFF4FC591D4915A
:1001A000FC01EC5DFF4FA591B491611109C09FB7AF
:1001B000F8948881209582238883EC912E230BC0AC
:1001C000623061F49FB7F8943881822F8095832341
:1001D0008883EC912E2B2C939FBF06C08FB7F89489
:1001E000E8812E2B28838FBFDF91CF9108952FB701
:1001F000F89460916F0070917000809171009091FF
:1002000072002FBF0895CF92DF92EF92FF921F935B
:10021000CF93DF93EC018F8157DF11E0892B09F435
:1002200010E08E81982F977F9E8386958170181796
:1002300049F0DDDF688379838A839B839E8182E036
:10024000892721C0D4DFC880D980EA80FB80AB0138
:10025000BC014C195D096E097F098C819D81A0E06C
:10026000B0E0481759076A077B0770F08E818170EC
:10027000811751F0BCDF688379838A839B839E81D9
:1002800081E0892788608E838E8183FB882780F9AF
:10029000DF91CF911F91FF90EF90DF90CF90089565
:1002A0008F929F92AF92BF92CF92DF92EF92FF9286
:1002B0000F931F93CF93DF93EC015B0108811981AA
:1002C0000150110917FD21C0F501E00FF11FC08099
:1002D0009A808C8087E0E82EF12CD12C96010E2C90
:1002E00002C0359527950A94E2F7B9016170772726
:1002F000882D12DF61E0892D0FDF60E0892D0CDF92
:1003000081E0E81AF10850F7DBCFB986A88661E0F2
:100310008E8102DF60E08E81DF91CF911F910F917E
:10032000FF90EF90DF90CF90BF90AF909F908F9015
:10033000F3CE1F920F920FB60F9211242F933F937B
:100340008F939F93AF93BF9380916F0090917000B4
:10035000A0917100B091720030916E0020E3230FE4
:100360002D3720F44096A11DB11D05C023EB230FAE
:100370004196A11DB11D20936E0080936F00909354
:100380007000A0937100B093720080916A00909108
:100390006B00A0916C00B0916D000196A11DB11D84
:1003A00080936A0090936B00A0936C00B0936D00F3
:1003B000BF91AF919F918F913F912F910F900FBE61
:1003C0000F901F901895CF93DF9300D0CDB7DEB775
:1003D00078948AB582608ABD8AB581608ABD83B708
:1003E000826083BF83B7816083BF89B7826089BF22
:1003F00080B7826080BF3298319A309A379A8CB534
:1004000080648CBD62E083E0B6DE13E010939C0054
:1004100010929B0083E058DE892B11F010939B0013
:10042000E6DE60939500709396008093970090931A
:10043000980085E090E090939A008093990062E0A4
:1004400084E099DE84E080939400109293003CDE77
:10045000892B19F083E080939300C9DE60938D00AF
:1004600070938E0080938F009093900085E090E0D1
:10047000909392008093910000E210E066246394D0
:10048000712C42E0E42EF12C54E0C52ED12C68E012
:10049000A62EB12C80E1882E912C98E1292E312CAA
:1004A00020E8422E512C85E990E0ADDE8DE890E009
:1004B000AADE40919300417080919B0080FD1CC09A
:1004C00080918B0090918C00892BD1F480916200F7
:1004D000909163000196853091052CF49093630010
:1004E0008093620004C07092630060926200709218
:1004F0008C0060928B0004C010928C0010928B00D4
:1005000041111CC08091890090918A00892BD1F4FF
:1005100080916000909161000196853091052CF4E6
:10052000909361008093600004C0709261006092BB
:10053000600070928A006092890004C010928A0064
:100540001092890080916200909163008330910540
:1005500031F174F481309105C9F0029799F5D09288
:100560008800C092870070928600609285002AC041
:1005700084309105E9F0059729F5109288001092D2
:100580008700D0928600C09285001CC0B09288007F
:10059000A0928700109286001092850013C0F092FE
:1005A0008800E0928700F0928600E09285000AC001
:1005B000709288006092870083E090E090938600BC
:1005C0008093850080916000909161008330910557
:1005D00041F184F481309105D9F0029799F580E4D6
:1005E00090E09093840080938300B0928200A09268
:1005F000810028C084309105E9F0059719F5109223
:1006000084001092830010938200009381001AC02E
:1006100050928400409283001092820010928100D8
:1006200011C0109384000093830090928200809206
:10063000810008C0909284008092830030928200F2
:100640002092810040918300509184008091870026
:1006500090918800482B592B5093800040937F0045
:100660006091810070918200809185009091860058
:10067000862B972B90937E0080937D0049838A83FD
:10068000BE016F5F7F4F83E790E00ADE80E090E07D
:10069000892B09F408CFB4DCFDCECF93DF93E5E9D5
:1006A000F0E010821182128213828AE090E095833A
:1006B000848316821782EDE8F0E0108211821282A4
:1006C00013829583848316821782C3E7D0E082E089
:1006D00090E0998388839B838A831D821C8281E0BA
:1006E00090E09F838E8361E082E045DD61E080E001
:1006F00042DD61E081E03FDD60E082E00DDD60E051
:1007000080E00ADD60E081E007DD82E090E010D06B
:1007100099878887FC0111821082BC01CE01DF918C
:10072000CF91BECDEE0FFF1F0590F491E02D0994FF
:10073000CF93DF938230910510F482E090E0E09156
:100740009F00F091A00020E030E0C0E0D0E03097C2
:1007500011F14081518148175907C0F048175907D6
:1007600061F482819381209719F09B838A832BC047
:100770009093A00080939F0026C02115310519F0A9
:100780004217530718F49A01BE01DF01EF010280FE
:10079000F381E02DDCCF2115310509F1281B390B40
:1007A0002430310590F412968D919C911397611528
:1007B000710521F0FB019383828304C09093A00014
:1007C00080939F00FD01329644C0FD01E20FF31FAC
:1007D00081939193225031092D933C933AC02091FB
:1007E0009D0030919E00232B41F4209166003091B2
:1007F000670030939E0020939D002091640030910B
:1008000065002115310541F42DB73EB740916800D0
:1008100050916900241B350BE0919D00F0919E00E2
:10082000E217F307A0F42E1B3F0B2817390778F0C7
:10083000AC014E5F5F4F2417350748F04E0F5F1F26
:1008400050939E0040939D008193919302C0E0E0FD
:10085000F0E0CF01DF91CF9108950F931F93CF93D5
:10086000DF93009709F48CC0FC0132971382128247
:1008700000919F001091A0000115110581F42081C5
:100880003181820F931F20919D0030919E00281787
:10089000390779F5F0939E00E0939D0071C0D8016F
:1008A00040E050E0AE17BF0750F412962D913C91F6
:1008B0001397AD012115310509F1D901F3CF9D0140
:1008C000DA013383228360817181860F971F82173B
:1008D000930769F4EC0128813981260F371F2E5FB9
:1008E0003F4F318320838A819B8193838283452B71
:1008F00029F4F093A000E0939F0042C01396FC936C
:10090000EE931297ED01499159919E01240F351FE5
:10091000E217F30771F480819181840F951F02968D
:1009200011969C938E938281938113969C938E93C0
:100930001297E0E0F0E0D80112968D919C91139708
:10094000009719F0F8018C01F6CF8D919C919801D8
:100950002E5F3F4F820F931F20919D0030919E008C
:100960002817390769F4309729F41092A0001092E3
:100970009F0002C01382128210939E0000939D007C
:0E098000DF91CF911F910F910895F894FFCF52
:0A098E00010001000000A10080003C
:00000001FF
