:100000000C9462000C948A000C948A000C948A0070
:100010000C948A000C948A000C948A000C948A0038
:100020000C948A000C948A000C948A000C948A0028
:100030000C948A000C948A000C948A000C948A0018
:100040000C9446030C948A000C9414030C94EE0256
:100050000C948A000C948A000C948A000C948A00F8
:100060000C948A000C948A000000000024002700F1
:100070002A0000000000250028002B0000000000DE
:1000800023002600290004040404040404040202DA
:100090000202020203030303030301020408102007
:1000A0004080010204081020010204081020000012
:1000B0000008000201000003040700000000000027
:1000C0000000900311241FBECFEFD8E0DEBFCDBFEC
:1000D00011E0A0E0B1E0EAEDFDE002C005900D9274
:1000E000A232B107D9F721E0A2E2B1E001C01D922E
:1000F000A63FB207E1F710E0C2E6D0E004C02197C6
:10010000FE010E94B305C136D107C9F70E94090458
:100110000C94EB060C940000FC01918D828D9817D5
:1001200061F0828DDF01A80FB11D5D968C91928DDB
:100130009F5F9F73928F90E008958FEF9FEF0895D8
:10014000FC01918D828D981731F0828DE80FF11DA1
:10015000858D90E008958FEF9FEF0895FC01918DBC
:10016000228D892F90E0805C9F4F821B91098F73B5
:1001700099270895FC01848DDF01A80FB11DA35AB2
:10018000BF4F2C91848D90E001968F739927848FB7
:10019000A689B7892C93A089B1898C9180648C93AE
:1001A000938D848D981306C00288F389E02D808199
:1001B0008F7D80830895EF92FF920F931F93CF93CB
:1001C000DF93EC0181E0888F9B8D8C8D981305C0A7
:1001D000E889F989808185FD24C0F62E0B8D10E019
:1001E0000F5F1F4F0F731127E02E8C8DE8120CC08C
:1001F0000FB607FCFACFE889F989808185FFF5CF32
:10020000CE010E94BA00F1CF8B8DFE01E80FF11DE7
:10021000E35AFF4FF0820B8FEA89FB89808180626D
:1002200007C0EE89FF896083E889F989808180644D
:10023000808381E090E0DF91CF911F910F91FF903B
:10024000EF900895CF93DF93EC01888D8823C9F058
:10025000EA89FB89808185FD05C0A889B9898C91CF
:1002600086FD0FC00FB607FCF5CF808185FFF2CF6A
:10027000A889B9898C9185FFEDCFCE010E94BA0083
:10028000E7CFDF91CF9108958BE391E00E94AE001C
:1002900021E0892B09F420E0822F089580E090E08E
:1002A000892B29F00E94440181110C9400000895CB
:1002B000CF92DF92EF92FF920F931F93CF93DF9332
:1002C0006C017A018B01C0E0D0E0CE15DF0589F02A
:1002D000D8016D918D01D601ED91FC910190F081D5
:1002E000E02DC6010995892B11F47E0102C02196EB
:1002F000ECCFC701DF91CF911F910F91FF90EF904D
:10030000DF90CF900895833081F028F4813099F008
:100310008230A1F008958730A9F08830B9F0843098
:10032000D1F4809180008F7D03C0809180008F7711
:1003300080938000089584B58F7702C084B58F7D47
:1003400084BD08958091B0008F7703C08091B00084
:100350008F7D8093B0000895CF93DF93282F30E0F6
:10036000F901E255FF4F8491F901E656FF4FD49110
:10037000F901EA57FF4FC491CC2391F081110E94FB
:100380008301EC2FF0E0EE0FFF1FE458FF4FA59123
:10039000B491EC91ED2381E090E021F480E002C083
:1003A00080E090E0DF91CF9108951F93CF93DF938A
:1003B000282F30E0F901E255FF4F8491F901E6560C
:1003C000FF4FD491F901EA57FF4FC491CC23C9F0F4
:1003D000162F81110E948301EC2FF0E0EE0FFF1F1A
:1003E000EE58FF4FA591B4918FB7F894111105C045
:1003F0009C91ED2FE095E92302C0EC91ED2BEC935D
:100400008FBFDF91CF911F910895CF93DF9390E03D
:10041000FC01E656FF4F2491FC01EA57FF4F8491FF
:10042000882361F190E0880F991FFC01E859FF4F84
:10043000C591D491FC01EE58FF4FA591B491611183
:1004400009C09FB7F8948881209582238883EC9116
:100450002E230BC0623061F49FB7F8943881822F4D
:10046000809583238883EC912E2B2C939FBF06C00D
:100470008FB7F894E8812E2B28838FBFDF91CF911F
:1004800008952FB7F8946091270170912801809109
:10049000290190912A012FBF0895CF92DF92EF9208
:1004A000FF921F93CF93DF93EC018F810E94AC01E9
:1004B00011E0892B09F410E08E81982F977F9E839D
:1004C00086958170181751F00E94410268837983E4
:1004D0008A839B839E8182E0892723C00E944102F8
:1004E000C880D980EA80FB80AB01BC014C195D0952
:1004F0006E097F098C819D81A0E0B0E04817590703
:100500006A077B0778F08E818170811759F00E940D
:100510004102688379838A839B839E8181E0892756
:1005200088608E838E8183FB882780F9DF91CF914D
:100530001F91FF90EF90DF90CF9008950E94E60604
:100540008F929F92AF92BF92CF92DF92EF92FF92E3
:100550000F931F93CF93DF93EC015B010881198107
:100560000150110917FD24C0F501E00FF11FC080F3
:100570009A808C8087E0E82EF12CD12C96010E2CED
:1005800002C0359527950A94E2F7B9016170772783
:10059000882D0E94D50161E0892D0E94D50160E07F
:1005A000892D0E94D50181E0E81AF10838F7D8CFEB
:1005B000B986A88661E08E810E94D50160E08E81B7
:1005C000DF91CF911F910F91FF90EF90DF90CF902F
:1005D000BF90AF909F908F900C94D5011F920F9277
:1005E0000FB60F9211242F933F934F935F936F9306
:1005F0007F938F939F93AF93BF93EF93FF938BE37F
:1006000091E00E94BA00FF91EF91BF91AF919F914D
:100610008F917F916F915F914F913F912F910F90AB
:100620000FBE0F901F9018951F920F920FB60F924A
:1006300011242F938F939F93EF93FF93E0914B019E
:10064000F0914C018081E0915101F091520182FDC5
:1006500012C09081809154018F5F8F73209155015A
:10066000821751F0E0915401F0E0E55CFE4F958F68
:100670008093540101C08081FF91EF919F918F91F0
:100680002F910F900FBE0F901F9018951F920F92F1
:100690000FB60F9211242F933F938F939F93AF9395
:1006A000BF938091270190912801A0912901B091D9
:1006B0002A013091260123E0230F2D3720F40196E3
:1006C000A11DB11D05C026E8230F0296A11DB11D75
:1006D000209326018093270190932801A09329015C
:1006E000B0932A018091220190912301A0912401CD
:1006F000B09125010196A11DB11D80932201909317
:100700002301A0932401B0932501BF91AF919F9144
:100710008F913F912F910F900FBE0F901F901895C2
:10072000CF93DF93EBE3F1E01382128288EE93E044
:10073000A0E0B0E084839583A683B7838EE091E048
:100740009183808385EC90E09587848784EC90E0AA
:100750009787868780EC90E0918B808B81EC90E08E
:10076000938B828B82EC90E0958B848B86EC90E06F
:10077000978B868B118E128E138E148EEAEEF1E01B
:1007800010821182128213828AE090E09583848322
:1007900016821782E2EEF1E0108211821282138239
:1007A0009583848316821782C8EDD1E082E090E0C1
:1007B000998388839B838A831D821C8281E090E0D9
:1007C0009F838E8361E082E00E94050261E080E009
:1007D0000E94050261E081E00E94050260E082E083
:1007E0000E94D50160E080E00E94D50160E081E0D8
:1007F0000E94D50182E090E00E94B9059987888720
:10080000FC0111821082BC01CE01DF91CF910C94CA
:10081000A002CF93DF9300D01F92CDB7DEB77894BC
:1008200084B5826084BD84B5816084BD85B58260F5
:1008300085BD85B5816085BD80916E0081608093A6
:100840006E0010928100809181008260809381000F
:10085000809181008160809381008091800081601F
:10086000809380008091B10084608093B10080917A
:10087000B00081608093B00080917A0084608093A2
:100880007A0080917A00826080937A0080917A0069
:10089000816080937A0080917A00806880937A00EA
:1008A0001092C10062E083E00E94050213E0109301
:1008B000F1011092F00183E00E94AC01892B11F04C
:1008C0001093F0010E9441026093EA017093EB01E2
:1008D0008093EC019093ED0185E090E09093EF011F
:1008E0008093EE0162E084E00E94050284E0809340
:1008F000E9011092E8010E94AC01892B19F083E014
:100900008093E8010E9441026093E2017093E30149
:100910008093E4019093E50185E090E09093E701F6
:100920008093E60166246394712C93E0292E312C88
:1009300008E010E020E2E22EF12C30E1C32ED12CB1
:1009400048E1442E512C50E8A52EB12C60E4862EAF
:10095000912C8AEE91E00E944D0282EE91E00E947D
:100960004D022091E80121708091F00180FD2EC0A0
:1009700044E050E06AE171E08BE391E02B830E9458
:10098000580142E050E06FE171E08BE391E00E949A
:1009900058018091390190913A012B81892BD1F432
:1009A00080910201909103010196853091052CF40C
:1009B000909303018093020104C07092030160923E
:1009C000020170923A016092390104C010923A011A
:1009D0001092390121111CC080913701909138018A
:1009E000892BD1F48091000190910101019685300D
:1009F00091052CF4909301018093000104C0709242
:100A0000010160920001709238016092370104C0C8
:100A100010923801109237018091020190910301E8
:100A20008330910531F184F481309105C9F002974A
:100A3000A1F584E090E090933601809335017092A7
:100A400034016092330129C084309105C9F00597C3
:100A500021F5109236011092350184E090E019C022
:100A60001093360100933501109234011092330136
:100A700014C082E090E0909336018093350109C064
:100A80007092360160923501309234012092330128
:100A900004C09093340180933301809100019091C0
:100AA00001018330910531F174F481309105C9F071
:100AB000029789F5909232018092310110933001B2
:100AC00000932F0128C084309105E9F0059719F5AE
:100AD0001092320110923101F0923001E0922F0118
:100AE0001AC0B0923201A0923101109230011092DE
:100AF0002F0111C0F0923201E0923101D092300109
:100B0000C0922F0108C0D0923201C09231015092A0
:100B1000300140922F0120913101309132018091BA
:100B2000350190913601822B932B90932E01809367
:100B30002D0140912F0150913001209133013091CE
:100B40003401242B352B30932C0120932B01298346
:100B50008A83BE016F5F7F4F88ED91E00E94A00203
:100B60000E944E01F6CEEE0FFF1F0590F491E02D8E
:100B70000994CF93DF938230910510F482E090E0E6
:100B8000E091F401F091F50120E030E0C0E0D0E028
:100B9000309711F14081518148175907C0F048172B
:100BA000590761F482819381209719F09B838A838E
:100BB0002BC09093F5018093F40126C021153105D7
:100BC00019F04217530718F49A01BE01DF01EF0133
:100BD0000280F381E02DDCCF2115310509F1281BBE
:100BE000390B2430310590F412968D919C91139716
:100BF0006115710521F0FB019383828304C09093FA
:100C0000F5018093F401FD01329644C0FD01E20F2D
:100C1000F31F81939193225031092D933C933AC055
:100C20002091F2013091F301232B41F42091060130
:100C3000309107013093F3012093F20120910401D8
:100C4000309105012115310541F42DB73EB7409192
:100C5000080150910901241B350BE091F201F0913C
:100C6000F301E217F307A0F42E1B3F0B28173907F7
:100C700078F0AC014E5F5F4F2417350748F04E0FF8
:100C80005F1F5093F3014093F2018193919302C04F
:100C9000E0E0F0E0CF01DF91CF9108950F931F9333
:100CA000CF93DF93009709F48CC0FC013297138235
:100CB00012820091F4011091F5010115110581F4E2
:100CC00020813181820F931F2091F2013091F30135
:100CD0002817390779F5F093F301E093F20171C019
:100CE000D80140E050E0AE17BF0750F412962D91A6
:100CF0003C911397AD012115310509F1D901F3CFCD
:100D00009D01DA013383228360817181860F971FF1
:100D10008217930769F4EC0128813981260F371F68
:100D20002E5F3F4F318320838A819B81938382830F
:100D3000452B29F4F093F501E093F40142C013969A
:100D4000FC93EE931297ED01499159919E01240F66
:100D5000351FE217F30771F480819181840F951F8D
:100D6000029611969C938E938281938113969C9305
:100D70008E931297E0E0F0E0D80112968D919C914D
:100D80001397009719F0F8018C01F6CF8D919C9183
:100D900098012E5F3F4F820F931F2091F2013091F7
:100DA000F3012817390769F4309729F41092F501F7
:100DB0001092F40102C0138212821093F301009387
:100DC000F201DF91CF911F910F91089581E090E0A2
:0A0DD000F8940C94EB06F894FFCFA2
:100DDA00010001000000F601800000000000DB00B5
:100DEA005801AE008C00A000220174657374000DD6
:020DFA000A00ED
:107E0000112484B714BE81FFF0D085E080938100F7
:107E100082E08093C00088E18093C10086E0809377
:107E2000C20080E18093C4008EE0C9D0259A86E02C
:107E300020E33CEF91E0309385002093840096BBD3
:107E4000B09BFECF1D9AA8958150A9F7CC24DD24C4
:107E500088248394B5E0AB2EA1E19A2EF3E0BF2EE7
:107E6000A2D0813461F49FD0082FAFD0023811F036
:107E7000013811F484E001C083E08DD089C08234E0
:107E800011F484E103C0853419F485E0A6D080C0E4
:107E9000853579F488D0E82EFF2485D0082F10E0AE
:107EA000102F00270E291F29000F111F8ED06801E7
:107EB0006FC0863521F484E090D080E0DECF843638
:107EC00009F040C070D06FD0082F6DD080E0C81688
:107ED00080E7D80618F4F601B7BEE895C0E0D1E017
:107EE00062D089930C17E1F7F0E0CF16F0E7DF06D8
:107EF00018F0F601B7BEE89568D007B600FCFDCFD4
:107F0000A601A0E0B1E02C9130E011968C91119780
:107F100090E0982F8827822B932B1296FA010C0160
:107F200087BEE89511244E5F5F4FF1E0A038BF0790
:107F300051F7F601A7BEE89507B600FCFDCF97BE46
:107F4000E89526C08437B1F42ED02DD0F82E2BD052
:107F50003CD0F601EF2C8F010F5F1F4F84911BD097
:107F6000EA94F801C1F70894C11CD11CFA94CF0C13
:107F7000D11C0EC0853739F428D08EE10CD085E9AC
:107F80000AD08FE07ACF813511F488E018D01DD067
:107F900080E101D065CF982F8091C00085FFFCCF94
:107FA0009093C60008958091C00087FFFCCF809118
:107FB000C00084FD01C0A8958091C6000895E0E648
:107FC000F0E098E1908380830895EDDF803219F02E
:107FD00088E0F5DFFFCF84E1DECF1F93182FE3DFCA
:107FE0001150E9F7F2DF1F91089580E0E8DFEE27F6
:047FF000FF270994CA
:027FFE00040479
:0400000300007E007B
:00000001FF
